:020000040800F2
:10000000680600200D02000815020008170200080B
:10001000190200081B0200081D0200080000000071
:100020000000000000000000000000001F020008A7
:100030002102000800000000230200082502000839
:1000400027020008270200082702000827020008EC
:100050002702000827020008C9020008270200083A
:1000600027020008270200082702000827020008CC
:1000700027020008270200082702000827020008BC
:1000800027020008270200082702000827020008AC
:10009000270200082702000827020008270200089C
:1000A000270200082702000827020008270200088C
:1000B000270200082702000827020008270200087C
:1000C000270200082702000827020008270200086C
:1000D000270200082702000827020008270200085C
:1000E000270200082702000827020008270200084C
:1000F000270200082702000827020008270200083C
:10010000270200082702000827020008270200082B
:10011000270200082702000827020008270200081B
:10012000270200082702000827020008270200080B
:1001300027020008270200082702000827020008FB
:1001400027020008270200082702000827020008EB
:1001500027020008270200082702000827020008DB
:1001600027020008270200082702000827020008CB
:1001700027020008270200082702000800000000EC
:10018000270200082702000800F002F800F02EF80D
:100190000AA090E8000C82448344AAF10107DA45E2
:1001A00001D100F023F8AFF2090EBAE80F0013F006
:1001B000010F18BFFB1A43F0010318473403000076
:1001C000440300000023002400250026103A28BF25
:1001D00078C1FBD8520728BF30C148BF0B607047B9
:1001E0001FB500F077F91FBD10B510BD00F031F854
:1001F0001146FFF7F5FF00F089F800F04FF803B45F
:10020000FFF7F2FF03BC00F057F8000009488047F1
:1002100009480047FEE7FEE7FEE7FEE7FEE7FEE7E8
:10022000FEE7FEE7FEE7FEE704480549054A064B00
:1002300070470000F90200088901000868000020EA
:10024000680600206802002068020020704770479E
:100250007047754600F02CF8AE46050069465346D7
:1002600020F00700854618B020B5FFF7DDFFBDE898
:1002700020404FF000064FF000074FF000084FF00D
:10028000000BAC46ACE8C009ACE8C009ACE8C0095A
:10029000ACE8C00921F007018D46704710B504464F
:1002A000AFF300802046BDE81040FFF7A8BF000074
:1002B000004870470000002001491820ABBEFEE74F
:1002C000260002007047000043F61440C4F201000B
:1002D0000168C90708BF704740F26001C2F200011F
:1002E0000A68531C622AC8BF00230B60016841F0F2
:1002F00001010160704700004EF68850CEF2000008
:10030000016841F4700101607047000043F6300C51
:10031000C4F2020CDCF8001043F6FF7341F0080150
:10032000CCF8001040F60041C4F202010A689A437A
:100330000A600A6842F001020A600A6842F0040298
:100340000A600A6842F010020A600A6842F040023D
:100350000A600A6842F480720A600A6842F48062A5
:100360000A600A6842F480520A6040F61442C4F2FD
:100370000202136823F07F0313604FF20042CFF6AE
:10038000FF728B5823F03C038B508B5843F00403CF
:100390008B508B5843F010038B504FF21443CFF621
:1003A000FF73C85820F06000C850DCF8000040F02F
:1003B0000100CCF80000885820F003008850DCF8D9
:1003C000140040F48040CCF8140043F60800C4F256
:1003D0000100016821F00F01016043F60C41C4F2F5
:1003E00001010A6822F001020A60D0F8F81341F016
:1003F0000101C0F8F813D0F8001441F00101C0F871
:1004000000144EF20010CEF20000402101604EF2C6
:100410000640CEF200001021017000BF002000F065
:1004200005F8012000F002F8F8E70000B0B540F64A
:10043000144CC4F2020CDCF80020002122F0FF0270
:10044000CCF8002040F26002C2F20002C4F20201C5
:100450001368D1F800E06FF0040546F267620028E7
:1004600008BF6FF00205C6F266624FF0020005EAAF
:100470000E0553FB02F208BF04200D604FEAA204F0
:100480000D6804EBD27202EB820408BFA3EB4402B6
:100490002843092A086088BFB0BD04A050F8220094
:1004A000DCF800100843CCF80000B0BD3F000000AD
:1004B000060000005B0000004F0000006600000026
:1004C0006D0000007D000000070000007F000000BC
:1004D0006F000000F1EE100A4FF6FF71C0F2C0315C
:1004E00020EA010040F04070E1EE100A7047000081
:1004F000000500080000002068060000C401000894
:040000050800018965
:00000001FF
